{"abi":[{"type":"constructor","inputs":[],"stateMutability":"nonpayable"},{"type":"receive","stateMutability":"payable"},{"type":"function","name":"allowedWithdrawalAddresses","inputs":[{"name":"","type":"address","internalType":"address"}],"outputs":[{"name":"","type":"bool","internalType":"bool"}],"stateMutability":"view"},{"type":"function","name":"arbiter","inputs":[],"outputs":[{"name":"","type":"address","internalType":"address"}],"stateMutability":"view"},{"type":"function","name":"isAuthorized","inputs":[{"name":"","type":"address","internalType":"address"}],"outputs":[{"name":"","type":"bool","internalType":"bool"}],"stateMutability":"view"},{"type":"function","name":"owner","inputs":[],"outputs":[{"name":"","type":"address","internalType":"address"}],"stateMutability":"view"},{"type":"function","name":"registerArbiter","inputs":[{"name":"_newArbiter","type":"address","internalType":"address"}],"outputs":[],"stateMutability":"nonpayable"},{"type":"function","name":"setAllowedAddress","inputs":[{"name":"_addr","type":"address","internalType":"address"},{"name":"_status","type":"bool","internalType":"bool"}],"outputs":[],"stateMutability":"nonpayable"},{"type":"function","name":"withdraw","inputs":[{"name":"to","type":"address","internalType":"address"},{"name":"amount","type":"uint256","internalType":"uint256"}],"outputs":[],"stateMutability":"nonpayable"}],"bytecode":{"object":"0x6080604052348015600e575f5ffd5b50335f5f6101000a81548173ffffffffffffffffffffffffffffffffffffffff021916908373ffffffffffffffffffffffffffffffffffffffff1602179055506108e68061005b5f395ff3fe608060405260043610610073575f3560e01c8063f3fef3a31161004d578063f3fef3a31461010c578063fae3698614610134578063fe25e00a1461015c578063fe9fbb80146101865761007a565b80631c1e42bf1461007e57806359008490146100a65780638da5cb5b146100e25761007a565b3661007a57005b5f5ffd5b348015610089575f5ffd5b506100a4600480360381019061009f9190610609565b6101c2565b005b3480156100b1575f5ffd5b506100cc60048036038101906100c79190610609565b6102e8565b6040516100d9919061064e565b60405180910390f35b3480156100ed575f5ffd5b506100f6610305565b6040516101039190610676565b60405180910390f35b348015610117575f5ffd5b50610132600480360381019061012d91906106c2565b610329565b005b34801561013f575f5ffd5b5061015a6004803603810190610155919061072a565b610483565b005b348015610167575f5ffd5b50610170610569565b60405161017d9190610676565b60405180910390f35b348015610191575f5ffd5b506101ac60048036038101906101a79190610609565b61058e565b6040516101b9919061064e565b60405180910390f35b5f5f9054906101000a900473ffffffffffffffffffffffffffffffffffffffff1673ffffffffffffffffffffffffffffffffffffffff163373ffffffffffffffffffffffffffffffffffffffff1614610250576040517f08c379a0000000000000000000000000000000000000000000000000000000008152600401610247906107c2565b60405180910390fd5b8060015f6101000a81548173ffffffffffffffffffffffffffffffffffffffff021916908373ffffffffffffffffffffffffffffffffffffffff160217905550600160035f8373ffffffffffffffffffffffffffffffffffffffff1673ffffffffffffffffffffffffffffffffffffffff1681526020019081526020015f205f6101000a81548160ff02191690831515021790555050565b6002602052805f5260405f205f915054906101000a900460ff1681565b5f5f9054906101000a900473ffffffffffffffffffffffffffffffffffffffff1681565b60035f3373ffffffffffffffffffffffffffffffffffffffff1673ffffffffffffffffffffffffffffffffffffffff1681526020019081526020015f205f9054906101000a900460ff166103b2576040517f08c379a00000000000000000000000000000000000000000000000000000000081526004016103a99061082a565b60405180910390fd5b60025f8373ffffffffffffffffffffffffffffffffffffffff1673ffffffffffffffffffffffffffffffffffffffff1681526020019081526020015f205f9054906101000a900460ff1661043b576040517f08c379a000000000000000000000000000000000000000000000000000000000815260040161043290610892565b60405180910390fd5b8173ffffffffffffffffffffffffffffffffffffffff166108fc8290811502906040515f60405180830381858888f1935050505015801561047e573d5f5f3e3d5ffd5b505050565b5f5f9054906101000a900473ffffffffffffffffffffffffffffffffffffffff1673ffffffffffffffffffffffffffffffffffffffff163373ffffffffffffffffffffffffffffffffffffffff1614610511576040517f08c379a0000000000000000000000000000000000000000000000000000000008152600401610508906107c2565b60405180910390fd5b8060025f8473ffffffffffffffffffffffffffffffffffffffff1673ffffffffffffffffffffffffffffffffffffffff1681526020019081526020015f205f6101000a81548160ff0219169083151502179055505050565b60015f9054906101000a900473ffffffffffffffffffffffffffffffffffffffff1681565b6003602052805f5260405f205f915054906101000a900460ff1681565b5f5ffd5b5f73ffffffffffffffffffffffffffffffffffffffff82169050919050565b5f6105d8826105af565b9050919050565b6105e8816105ce565b81146105f2575f5ffd5b50565b5f81359050610603816105df565b92915050565b5f6020828403121561061e5761061d6105ab565b5b5f61062b848285016105f5565b91505092915050565b5f8115159050919050565b61064881610634565b82525050565b5f6020820190506106615f83018461063f565b92915050565b610670816105ce565b82525050565b5f6020820190506106895f830184610667565b92915050565b5f819050919050565b6106a18161068f565b81146106ab575f5ffd5b50565b5f813590506106bc81610698565b92915050565b5f5f604083850312156106d8576106d76105ab565b5b5f6106e5858286016105f5565b92505060206106f6858286016106ae565b9150509250929050565b61070981610634565b8114610713575f5ffd5b50565b5f8135905061072481610700565b92915050565b5f5f604083850312156107405761073f6105ab565b5b5f61074d858286016105f5565b925050602061075e85828601610716565b9150509250929050565b5f82825260208201905092915050565b7f4e6f7420746865206f776e6572000000000000000000000000000000000000005f82015250565b5f6107ac600d83610768565b91506107b782610778565b602082019050919050565b5f6020820190508181035f8301526107d9816107a0565b9050919050565b7f4e6f7420616e20617262697465720000000000000000000000000000000000005f82015250565b5f610814600e83610768565b915061081f826107e0565b602082019050919050565b5f6020820190508181035f83015261084181610808565b9050919050565b7f41646472657373206e6f7420616c6c6f776564000000000000000000000000005f82015250565b5f61087c601383610768565b915061088782610848565b602082019050919050565b5f6020820190508181035f8301526108a981610870565b905091905056fea2646970667358221220973e85af84edc9f44e8eae9f8bd5cba127a6dade6b87461dbecf032db786ada864736f6c634300081e0033","linkReferences":{}},"methodIdentifiers":{"allowedWithdrawalAddresses(address)":"59008490","arbiter()":"fe25e00a","isAuthorized(address)":"fe9fbb80","owner()":"8da5cb5b","registerArbiter(address)":"1c1e42bf","setAllowedAddress(address,bool)":"fae36986","withdraw(address,uint256)":"f3fef3a3"},"id":22}